:200000000C94AC37189518951895189518951895189518950C94F434189518951895189579
:200020001895189518951895189518951895189518951895189518951895189518951895F0
:200040000C94D61E18951895189518951895189518951895189518958813881388138813DE
:2000600088138813A3029D02970291028B02860281027C02770272026D02252421B80BB883
:200080000BD00768100410100ED80E740EE40CFAF4EEE8E2DCD7D1CBC6C0BBB6B0ABA6A1EE
:2000A0009C98938F8C8A827E7A76726E6B6764615D5A5754524F4C4A474543403E3C3A38D9
:2000C000363433312F2E2C2B2A2827262524232221201F1E1D1C1B1A1918171615141312D9
:2000E00011100000F7090C00F3073008540857088508BE08E2081B094C098409B509D90903
:2001000000009A221200EC1E511F9E1F002049207820A620D32002213B219F21D921E921BD
:20012000F921242245226E228F22929A00E000934506EDE8F6E000810D7F008301E000931E
:20014000430600E00093B206CBD200E000934A06C498009371060093700600930C07009125
:200160001206053040F00091F205013021F00091E306013051F400E0E7E7F6E000830183BD
:200180000BBD0ABD969A939A13C0033039F0023029F0043019F001E00093F20534D2E2E089
:2001A000F7E000811181ECE7F6E0008311831CD090980895909AC49A9398969A929808953A
:2001C00000E0E7E7F6E00083018300937106009370060093B20684D2C49A9398969A929AFB
:2001E00000E00BBD0ABD0895C49A93989698929A00914A06073E10F001E001C000E01091C7
:200200000C07193210F4002311F0909A0895909808953B2E2A2E0091790610E044E650E0B1
:200220000E94E6379801EEE7F6E0008311830091E306013031F000E315E7E1E8F6E00083D7
:200240001183E0E0F7E000811181EAE7F6E0408151810417150758F4EBE8F6E000811181E7
:20026000E1E8F6E0408151810417150790F0009172060023B1F4E3E7F6E000810395008388
:20028000063078F001E00093720600E000933D0608C000917306002321F0E3E7F6E00A95D9
:2002A0000083E1E8F6E000811181EBE8F6E0408151810417150710F401E00BC08A010C59F6
:2002C0001F4FE1E8F6E0408151810417150718F400E00093700600917006002311F00AE03D
:2002E00001C000E0E2E6F7E0108113951083EAE7F6E040815181E0E1F7E0608171814617F0
:20030000570738F0E2E1F7E0408151812417350740F5E7E7F6E000811181012B29F0008101
:200320000150104000831183A0E1B7E0ED91F72FAAE7B6E00D911C91E01BF10BF39708F45A
:200340005DC0A7E7B6E0ED91FC91339708F456C0E7E7F6E000811181025010400083118305
:200360004DC0E1E8F6E040815181EBE8F6E06081718146175707C8F4109170061123A9F067
:20038000E2E0F7E0208131812F363040B8F110916207101798F1E7E7F6E000811181012B56
:2003A00051F100810150104024C010916207101728F1E2E1F7E00081118102171307F0F4E7
:2003C000E0E1F7E000811181EAE7F6E0208131810217130798F44617570780F0E7E7F6E0EA
:2003E00020813181223F03E0300728F489010F5F1F4F0083118300E000936207E7E7F6E016
:2004000000811181209171062E3020F400E010E00083018333E031233BBD0ABDA22DB32D83
:2004200008950091790610E044E650E00E94E637EEE7F6E000831183EAE7F6E0208131814A
:20044000E0E1F7E0408151812417350738F4E4E1F7E0208131810217130750F4E7E7F6E0C4
:2004600000811181012BE9F000810150104017C020173107B0F4EAE7F6E0008111810F5F30
:200480001F4F0417150768F4E7E7F6E020813181223F03E0300728F489010F5F1F4F0083E4
:2004A0001183E7E7F6E000811181209171062E3020F400E010E00083018333E031233BBD21
:2004C0000ABD08950091790610E044E650E00E94E637EEE7F6E000831183E2E1F7E02081A2
:2004E00031810217130758F4E7E7F6E000811181012BB9F0008111810150104010C0201784
:20050000310778F4021B130B0D321140E7E7F6E00081118110F00D5F01C00F5F1F4F008329
:200520001183E7E7F6E0208131812D3F334020F00CEF13E000831183008111812091710601
:200540002E3020F400E010E00083018333E031233BBD0ABD08950091790610E044E650E035
:200560000E94E637EEE7F6E000831183E4E1F7E0208131810217130758F4E7E7F6E0008167
:200580001181012BB9F0008111810150104010C02017310778F4021B130B0F311040E7E7FC
:2005A000F6E00081118110F00D5F01C00F5F1F4F00831183E7E7F6E0208131812D3F33405C
:2005C00020F00CEF13E00083118300811181209171062E3020F400E010E00083018333E06F
:2005E00031233BBD0ABD0895E7E7F6E0008111810D3F23E0120710F000E010E033E03123F5
:200600003BBD0ABD08955B2F4A2FE6E1F7E0008111810854144FE0E0F7E020813181021708
:20062000130718F401E00093F205E4E0F7E0208131812C32314020F400E00093800607C098
:2006400000918006053118F001E00093F2050091120610E0E7E7F6E000831183A7E7B6E062
:20066000ED91F0E0759718F001E00093F20500E00BBDE7E7F6E000810ABDA42FB52F0895C5
:200680000E94C63800914306013021F400E21EE484E603C00EE219E082E390E0E0E0F7E034
:2006A00040815181413D27E0520768F0D8018A0144E650E00E94FC37A8018D010E94FC37D2
:2006C0000F5F1F4F02C004E610E08017910718F48093890602C000938906E4E00C94D33872
:2006E000E2EBF6E0008100FF02C0C09A01C0C098008101FF02C0C19A01C0C198008102FF68
:2007000002C0C29A01C0C298008103FF02C0C39A01C0C398008104FF02C0DE9A01C0DE98ED
:20072000008105FF02C0DF9A0895DF9808959A938A9310E060E040ED57E028EB3BE00091AB
:200740001406023021F448EE53E020ED37E000E00093330672E0079FF001EC59F94F008009
:2007600011804015510570F4CA018C509E4F079FF001EC59F94F0080118080159105A0F055
:200780007BE010C0079FF001EC59F94F008011800416150648F47091CE06701728F00023F1
:2007A00019F07DE07093330672E0079FF001EC59F94F008011804015510508F4602F079F34
:2007C000F001EC59F94F0080118071E3071671E1170618F07CE0709333060023E9F0802F5F
:2007E00090E00197880F991FFC01EC59F94F008011800416150680F4CA018C509E4F72E078
:20080000079FF001EC59F94F008011808015910518F47DE0709333060395063008F49ACFA0
:2008200000918F06013079F4E4E6F6E0008011800416150628F0028013800416150618F4A0
:200840000DE0009333060091CE06601710F06093CE0640E157E260E0EBE8F6E06083618332
:2008600000E062E0069FF001EC59F94F608171814617570790F062E0069FF001EC59F94FC0
:20088000608171816217730740F012E0019FF001EC59F94F40815181102F62E0069FF001A8
:2008A000EC59F94F60817181EBE8F6E0008011806015710558F062E0069FF001EC59F94F86
:2008C00060817181EBE8F6E0608371830395063040F261E00091B006043100E030F1109364
:2008E000B106CA010A9662E0069FF001EC59F94F608171818617970788F462E0069FF0010F
:20090000EC59F94F608171816217730738F06091B006683118F060E06093B006039506305D
:20092000F0F200E00093B2063FC04091B10612E0419FF001EC59F94F40815181019FF001AF
:20094000EC59F94F8081918105964817590768F4019FF001EC59F94F4081518142175307DD
:2009600020F01091B106101771F4E1E8F6E04081518112E0019FF001EC59F94F0080118030
:200980004015510530F4E2EBF6E01081162B108307C0162F1095E2EBF6E040814123408344
:2009A000660F0395063008F200914A060A3F48F40091B206002329F0EAE4F6E00081039552
:2009C00000838EDE899199910895AD9800E0009342065BD000E61AEE0E947E3600E61AEEEA
:2009E0000E947E3600E61AEE0E947E3600E117E20E947E3608E10093420647D061D000E140
:200A000017E20E947E3608E1009342063ED058D000E117E20E947E3608E10093420635D094
:200A20004FD000E117E20E947E3600E1009342062CD046D000E117E20E947E3608E24BD064
:200A400000E117E20E947E3608E045D000E117E20E947E3601E03FD000E117E20E947E3619
:200A600006E039D000E117E20E947E360FE033D000E117E20E947E3600E117E20E947E3605
:200A800047D000E117E20C947E36E2E4F6E0008106FF02C0A89A01C0A898008105FF02C0A3
:200AA000A99A01C0A998008104FF02C0AA9A01C0AA98008103FF02C0AB9A0895AB9808955D
:200AC0000FE010E00E947E36AC9A0FE010E00E947E36AC9808958A93802FAD98007F06955A
:200AE00000934206D2DFECDF0CE810E00E947E368F70880F880F880F80934206C6DFE0DFE2
:200B000008E813E10E947E368991089501E0E3CF0CE0E1DF08E813E10C947E3610913F0687
:200B200012951F7000913F060F7011F0105401C01058012FD0CF8A93802FAD9A007F0695A0
:200B400000934206A2DFBCDF0CE810E00E947E368F70880F880F880F8093420696DFB0DF41
:200B60000CE810E00E947E3689910895BA93AA93D801D4DF02C00D91DEDF0C910023D9F7C1
:200B8000A991B99108950E94C4382801C7DF820140E157E20E94FC37802F40E157E20E946A
:200BA000E637401A510A805D80935407820148EE53E00E94FC37802F48EE53E00E94E63780
:200BC000401A510A820144E650E00E94FC37A02F44E650E00E94E637401A510A82014AE064
:200BE00050E00E94FC37142D2AE0029F1019105D10935007805D80935307A05DA0935207A1
:200C0000005D00935107E6E00C94D138BCDF00915307003309F400E28EDF009152070033FB
:200C200039F400915307003311F000E301C000E282DF00915107003359F4009153070033FA
:200C400031F400915207003311F400E201C000E372DF009150076FCF10E095DF0091510703
:200C6000003309F400E267DF0091500764CF10E08ADF009151075FDF009150075CCF83DF0C
:200C800000915207003309F400E255DF00915107003339F400915207003311F000E301C019
:200CA00000E249DF0091500746CF6DDF0091530742DF009152073FDF009151073CDF00E2E7
:200CC0003ACF0E94C638D80140E157E20E94FC37C80140E157E20E94E637A01BB10B8D017C
:200CE00052DF082F092B19F0082F005D24DF0091530721DF009152071EDF009151071BDF03
:200D00000091500718DF0DE616DF01E414DF892B11F408E610DFE4E00C94D33834DF00918B
:200D20005207003309F400E206DF0091510703DF0EE201DF00915007FEDE06E5FCCE23DF4D
:200D400000915307003309F400E2F5DE00915207F2DE0EE2F0DE00915107EDDE00915007AF
:200D6000EADE06E5E8CE8A93802F10E00CDF843650F000E2E0DE00915207DDDE009151073B
:200D8000DADE01E40BC000915107D5DE0EE2D3DE00915007D0DE01E4CEDE00E2CCDE8991E1
:200DA00008958A93802F10E0EEDE843668F000915207C1DE00915107BEDE0EE2BCDE0091D3
:200DC0005007B9DE01E40BC000915107B4DE0EE2B2DE00915007AFDE01E4ADDE00E2ABDE2A
:200DE000899108958A93802F10E0CDDE843618F00091520701C000E29EDE009151079BDEA8
:200E00000EE299DE0091500796DE01E494DE899108950B5F1F4F4AE050E00E94FC37B3DE69
:200E20000091520788DE0EE286DE0091510783DE0091500780CE0E94C638D80140E157E2BB
:200E40000E94FC37C80140E157E20E94E637A01BB10B8D0198DE082F092B19F0082F005D58
:200E60006ADE0091530767DE0091520764DE0091510761DE009150075EDEE4E00C94D33813
:200E80000091E306002300E000933F0649F40FE413E06CDE01E000933F060EE313E066CEBF
:200EA0000CE512E063DE01E000933F06009319060FEF0093180604E512E058DE01E7009368
:200EC0003F060091E306013061F4EEE6F0E01091140602E0109FE00DF11D0591149146DE83
:200EE00003C00AE000938F060091E306023019F40FE412E03BDE0091E306033019F40AE4BE
:200F000012E034DE0091E306043019F405E412E02DDE0091E306002341F0053030F401EB19
:200F200000933F060FE312E021DE0091E306053019F405E312E01ADE0091E306063019F4AB
:200F400000E613E013DE08950091E306002309F422D00091E306013009F45CD20091E3064E
:200F6000023011F402E09AD30091E306033011F403E094D30091E306043009F4E2D40091FD
:200F8000E306053011F40E94FA0F0091E306063009F47CD708959A938A93E6EFF6E0008170
:200FA00003FF19C0E7EEF6E00081039500830091E506043021F0073038F00A3028F4009108
:200FC000E706033040F004C00091E706023018F000E00093E7060BE020D60091E506E2EEB8
:200FE000F0E00C946B3880911406EEE6F0E002E0809FE00DF11D05911491B8DD01E00093CF
:201000003F0607E313E0B2DD01EC00933F0600919206073048F0E4E7F0E002E0809FE00D39
:20102000F11D0591149102C003E313E09FDD0091E706002391F0E6EFF6E0008102FF05C03C
:20104000823010F4839501C080E0008101FF05C0882311F08A9501C082E080931406CAC1B5
:2010600004E213E083DD01E000933F060BE113E07DDD01EA00933F0600919206073020F012
:201080000091150632D503C003E313E06FDD0091E706002309F4AEC1209115061AEF05E0EE
:2010A0002ED600931506A6C181E002E043D50091E506033019F480E003E03CD50091920683
:2010C000073090E0FC0128F0E55FF94F0081EAD40BC0E55FF94F0081053018F40EE013E08F
:2010E00002C008E113E042DD0091E706002309F481C1FC01E55FF94F208114E104E0FFD57C
:20110000FC01E55FF94F008375C101E013E02EDD01E000933F0600919206073018F001E0AC
:20112000CDD403C003E313E021DD0091E706013011F401E0B3D501E700933F06009193066D
:20114000073028F000910D0610E0CCD403C003E313E00CDD01EC00933F0600910D0610E02E
:201160004CD10091E706023009F044C120910D0610E504E1C4D500930D063CC106EF12E0E3
:20118000F5DC01E000933F060DEE12E0EFDC01EA00933F0600919206073020F000910E0635
:2011A000A4D403C003E313E0E1DC0091E706002309F420C120910E061CE300E0A0D5009333
:2011C0000E0618C100EE12E0D1DC01E000933F0608ED12E0CBDC01EB00933F060091920661
:2011E00007300091120690F0053018F40CEC12E014C00091120610E04AE050E00E94E637DE
:201200003EDD0DE698DC01E496DC08C0053018F402ED12E002C003E313E0A8DC0091E7066E
:20122000002309F4E7C02091120614E104E067D500931206DFC00FEB12E098DC01E00093EB
:201240003F0600919206073018F002E037D403C003E313E08BDC0091E706013011F402E05B
:201260001DD501E900933F0600919306073020F000910F0642D403C00AEB12E077DC0091FF
:20128000E706023009F0B6C020910F0618E401E036D500930F06AEC009EA12E067DC01E0F3
:2012A00000933F0600919206073018F004E006D403C003E313E05ADC0091E706013011F4AA
:2012C00004E0ECD401E800933F0600919306073030F0E6E1F6E00081118117D403C002EDDB
:2012E00012E044DC0091E706023009F083C0E6E1F6E04081518128E833E101E017D5E6E108
:20130000F6E00083118376C006EC11E02FDC00ED00933F0600919206073018F008E0D8D3FC
:2013200003C003E313E022DC0091E706013011F408E0B4D401E000933F060FEB11E016DC59
:2013400001ED00933F0600919306073018F000E1BFD303C003E313E009DC0091E7060230BA
:2013600009F048C000E19AD445C00FEA11E0FEDB01E000933F0607EA11E0F8DB01EB009368
:201380003F0600919206073028F00091100610E0C5DC03C00AEB12E0E9DB0091E706002349
:2013A00049F1209110061EE604E6A9D40093100621C00CE911E0DADB01EB00933F06009147
:2013C0009206073020F00091110660D303C00AEB12E0CCDB0091E706002339F02091110670
:2013E00014E100E08CD40093110670D703C000E00093E5068991999108954AE550E00E94C4
:20140000E63742E350E00E94FC37005E1F4F37DC06E491CB0E94C73891E0A1E081E0E6EF97
:20142000F6E0008103FF0AC0E7EEF6E0008103950083033018F000E00093E70604E0EDD303
:20144000EEE6F0E01091140602E0109FE00DF11D059114918BDB00E500933F060091E506C7
:20146000045020F0005009F4C0C011C10091E506002359F405E911E079DB00E000938F0642
:201480009091FD05A091FE0580E00091E506013089F40DE811E06ADB01E000938F060091A6
:2014A0000006023018F402E0009300069091FF05A02F82E00091E506023059F404E811E03F
:2014C00055DB02E000938F0690910106A091020680E00091E506033059F40CE711E046DB10
:2014E00003E000938F0690910306A091040681E001E000933F0600919206073018F0092FC2
:2015000050DC08C0943618F00AEB12E002C003E313E02CDB0091E706013059F40091E50604
:201520000330292F11F412E301C014E601E0E7D3902F01E700933F06009193060730AA2323
:20154000E0F051F40091E506033019F408E611E01AC002E711E017C0EAE7F0E00091140604
:2015600010E0E00FF11F0491A09F8001D7DB01EC00933F060A2FD0D207C019F00AEB12E01E
:2015800002C00EE013E0F2DA0091E706023059F40091E50603302A2F16E011F401E001C03A
:2015A000082FADD3A02F0091E506002329F49093FD05A093FE0514C0013029F49093FF0545
:2015C000A09300060DC0023029F490930106A093020606C0033021F490930306A0930406DA
:2015E0009093CB06A093CC0655C004E000938F060EE511E0BBDA01E000933F060091920676
:20160000073020F000910506AEDB03C003E313E0ADDA0091E706013039F42091050612E3AE
:2016200001E06DD30093050601E700933F06009193060730A8F000911406023011F444E12B
:2016400001C04EE150E00091060610E00E94E63765DB01EC00933F06009106065DD203C08A
:201660000AEB12E083DA0091E706023039F42091060616E001E043D3009306060091050664
:201680000093CB06009106060093CC0603C000E00093E506E7D3E3E00C94D4380E94C238FE
:2016A000702EE6EFF6E0008103FF15C0E7EEF6E0008103950083033018F000E00093E706A7
:2016C0000091E506002339F40091E706023018F000E00093E70602E0A0D203E07016B1F4C4
:2016E0000AE412E043DA4090F8055090F905EAEFF5E080819181A091D7066090FC05A0934F
:20170000970660929A06B091D80615C00FE412E02DDA4090F3055090F405E5EFF5E080816F
:201720009181A091D5066090F705A093970660929A06B091D60600E2FED900E500933F06AA
:201740000091E506005039F00A9509F45EC00A9509F497C0CFC005E911E008DA00EC009318
:201760003F060091E306053041F4BB2319F00CE411E00AC000E511E007C0BB2319F004E541
:2017800011E002C009E511E0F1D901E000933F06BB2319F008E311E002C002E411E0E6D919
:2017A00001EB00933F0600919206073018F0042D19DB03C00AEB12E0D9D90091E7060023DB
:2017C000B9F00091FA060630B9F4E2ECF6E0008103950083053108F490C0BB2311F0B0E0BB
:2017E00001C0B1E02CE231E000E911E00E94B33600E00093C20681C000E00093C206242D0B
:2018000014E601E07CD2402E78C00EE511E0AED901E000933F0600919206073018F0052D3B
:20182000A2DA03C003E313E0A1D90091E706013029F4252D12E301E062D2502E01EB0093F1
:201840003F06009193060730082F092B38F019F08C0164DA0AC00FE212E006C019F00AEB0A
:2018600012E002C002ED12E081D90091E706023009F043C0AC012AEF30E000E057D2C80125
:201880003CC009E212E072D901E000933F0600919206073040F0AA2319F00DEE12E005C053
:2018A00007E112E002C000E212E060D90091E706013049F40091F606067029F0AA2311F0A9
:2018C000A0E001C0A1E001EE00933F0600919306073018F0062DC0D903C008E113E046D98C
:2018E0000091E706023049F4262D15E001E007D2602E03C000E00093E50603E0701679F474
:201900004092F8055092F905EAEFF5E080839183A093D7066092FC05B093D8060EC040928F
:20192000F3055092F405E5EFF5E080839183A093D5066092F705B093D60694D2E8E00C942B
:20194000CF38E6EFF6E0008103FF0AC0E7EEF6E0008103950083033018F000E00093E706A6
:2019600001E05BD103E112E001D900E300933F060091E506005021F00A9509F445C082C02F
:2019800005E911E0F3D801E000933F060091920607300091070610F004DA08C0043618F0FE
:2019A0000AEB12E002C003E313E0E0D80091E706013039F42091070614E601E0A0D1009374
:2019C000070601E600933F06009109060A3030F401E112E0CBD801E700933F0600919306DC
:2019E000073010F0BFD003C00AEB12E0BFD80091E706023009F049C0209109061AE001E093
:201A00007ED1009309062EC20EE511E0AFD801E000933F0600919206073020F000910806B2
:201A2000A2D903C003E313E0A1D80091E706013039F42091080612E301E061D100930806D2
:201A400001E600933F0600910A060A3030F401E112E08CD801E700933F060091930607306F
:201A600010F080D003C00AEB12E080D80091E706023059F420910A061AE001E040D10093D7
:201A80000A06F0C100E00093E506ECC110E045E050E00E94E637BAD801EF00933F060FE02D
:201AA00012E064C8053018F40DEF11E05FC8D4D801E900933F0607E012E058C81091130692
:201AC000102319F005EF11E051C809EF11E04EC810911306102319F001EF11E047C809EFEF
:201AE00011E044C8CCD803E426C810E0C8D80DE622D809E620D80EE61EC810E0C0D801ECBD
:201B000000933F060CEE11E031C880D801EC00933F0607EE11E02AC88A93802F05EE11E064
:201B200025D8805D082F07D803E505D809E203D889910895023019F40FE412E002C00AE49F
:201B400012E014D800E400933F0608ED11E00ED801E000933F0601ED11E008D801E700932C
:201B60003F0608959A938A930091E506002319F48091090602C080910A0690E08C0144E168
:201B800050E00E94E637CAD808E20E949B058A30990748F001E30E949B058C014AE050E0E9
:201BA0000E94FC37842F082F005D0E949B0500E50E949B0509E20E949B0589919991089592
:201BC000E6EFF6E0108113FF0AC0E7EEF6E0108113951083011718F400E00093E706009161
:201BE000E706002351F00091F606067031F000E00093EE0605E50093EC060091E60610917C
:201C0000E506011731F00E9486050091E5060093E60600E000933F0608951091E706112361
:201C200059F00091F606067049F100E00093EE0605E50093EC0622C0E6EFF6E0108111FF1A
:201C40000BC01091E506112329F0E5EEF6E01A95108302C00093E506E6EFF6E0108112FF68
:201C60000DC01091E506101730F4E5EEF6E0012F0395008303C000E00093E5060091E6062E
:201C80001091E506011731F00E9486050091E5060093E60600E000933F0608951091F60665
:201CA000167081F010911306102339F00095EBE0F6E01085102310870895EBE0F6E01085AF
:201CC000102B108708950E94C738A02F912F822F62D0E6EFF6E0008102FF05C0891710F4EC
:201CE000839501C08A2F008101FF05C0A81710F48A9501C0892F082FE3E00C94D4380E9469
:201D0000C738A02F912F822F46D0E6EFF6E0008102FF03C0891708F4839501FF03C0A81748
:201D200008F48A95082FE3E00C94D4380E94C438402ED901CA012FD0E6EFF6E0008102FF05
:201D400010C08A179B0708F401960091F2060A3140F01A97A817B90708F00A9604E10093A9
:201D6000F206008101FF13C055244816590608F401970091F4060A3150F0E42DF0E03A9696
:201D8000E817F90708F40A9704E10093F4068C01E6E00C94D138E5EFF6E0008102FF32C01B
:201DA000E1EFF6E0008103950083E2EFF6E00081039500830091F106003140F00CE0009336
:201DC000F106E6EFF6E0008104600083E5EFF6E0008101FF1DC0E3EFF6E0008103950083AD
:201DE000E4EFF6E00081039500830091F306003140F00CE00093F306E6EFF6E000810260AD
:201E00000083089500E00093F1060093F206DECF00E00093F3060093F40608958A93802F9E
:201E2000813061F4EEE6F0E01091140602E0109FE00DF11D059114910E94B605833021F451
:201E40000AE412E00E94B605823021F40FE412E00E94B605843021F405E412E00E94B6053B
:201E6000899108950091E306053079F400EF00933F06009194060E3120F40FEC11E00C94BE
:201E8000B60501E112E00E94B60508958A9304E097DE0E942C1B01E00093E7060CE015E018
:201EA0000E94B60500E500933F060AE015E00E94B60500E800933F0608E015E00E94B605D2
:201EC00000E600933F060091E706013081F4209119061AE001E013DF0093190600919206A8
:201EE000073028F408E113E00E94B60504C0009119060E94370600EC00933F0600911A068E
:201F0000013099F400915F07013029F401E812E00E94B6050BC000915F07023019F40CE792
:201F200012E0F6CF06E812E0F3CF78DF01E000933F06EFE1F6E0008111810E948E0601E860
:201F400000933F06EDE1F6E000811181DEDD0091F706033388F10E94860500E000933F0615
:201F60000FEF14E00E94B6050E9416378EE100E315E70E947E368A95D1F70E947B1B00E47C
:201F800000933F0601E112E00E94B60500E00093F70600911A060093E30601E00093E10640
:201FA00000E00093E70605E50093EC0600E00093F60608EC00933E068991089520911B068F
:201FC000EAE7F0E00091140610E0E00FF11F0491209FEFE1F6E000821182089500911C0667
:201FE00010E044E150E00E94E637EFE1F6E00083118308958A9304E0E3DD00E00093E50664
:202000000091190610911806011731F00E942C1B00911906009318060091E706002319F420
:2020200001E00093E70608EF14E00E94B60500E800933F0603EF14E00E94B60500E600937B
:202040003F060091E706013081F4209119061AE001E055DE0093190600919206073028F40B
:2020600008E113E00E94B60504C0009119060E94370600EC00933F060091E706023081F4EB
:2020800020911A0614E001E01EDE00931A0600919306073028F40AEB12E00E94B60503C067
:2020A00000911A06BBDE01E000933F060091E706033000911A0659F5013049F420911B062D
:2020C00016E001E01CDE00931B0678DF17C0043049F420911C061AE001E011DE00931C068A
:2020E0007DDF0CC0EFE1F6E0408151812AEF30E001E01CDEEFE1F6E0008311830091930694
:20210000073068F40AEB12E00E94B6050EC0013009F454DF00911A06043009F45FDFEFE1C9
:20212000F6E0008111810E948E0601E800933F060091E7060430EDE1F6E0A9F44081518139
:2021400028E833E101E0F2DDEDE1F6E00083118300919306073010F0008107C002ED12E066
:202160000E94B60503C000811181CFDC0091F706033308F499C00E94D0360E94001C00E022
:202180000093F7060093E7060E94860505C000E00093F6060093340600913E06053028F0DF
:2021A0000E94031E00E000933E0600913406043098F3E6EFF6E0008100FF0BC00E947B1BED
:2021C00000E00093E7060093F60605E00093E30669C00091E4061091E306011731F40091B3
:2021E000E2061091E106011789F00091E3060093E4060091E1060093E20600E00093F60685
:202200000093E7060093E5060E9486050E948C3600E000933F0600911A06013009F4FAD8C6
:2022200000911A06023011F402E038DA00911A06033011F403E032DA00911A06043009F408
:2022400080DB0091F706033308F4A1CF0E94860500E000933F060DEE14E00E94B60526D0CC
:202260000EE20E949B0522D00EE20E949B051ED00E94001C0E94F91A0E94D0368EE100E3AD
:2022800015E70E947E368A95D1F700E00093F70605E00093E30600E00093E1060093E7065A
:2022A0000093F6060E948605899108958A938EE100E315E70E947E368A95D1F72CE231E0E4
:2022C00006E811E00E94B336899108950091110610E043E350E00E94E63733E0312339BDD3
:2022E00008BD089500914306013019F4E2E0F7E002C0E6E0F7E0008111810B5F1F4F4AE057
:2023000050E00E94FC37E0E4F6E0008311836DD10091E906002309F404C002E30093950652
:2023200008950FEF0093EA06B8D000E500933F06E6EFF6E0008103FF11C00091E706009528
:202340000093E70600914906002341F000E00093E7060093490604E600933C06EEE8F6E01C
:20236000008103FD17C0EDE8F6E0008106FD12C000917206002371F40091E906002351F48B
:20238000E6E3F6E000811181012B21F400914906002351F100E00093E7060091E806002303
:2023A00071F000E00093E806E0E4F6E0008111810B5F1F4F4AE050E00E94FC377ED20091C6
:2023C0004906002319F40091380652D29DD100913C06043678F100E000933C060091490612
:2023E000002369F178D042C00091E7060023A9F20093E8060091430601302091440611F44E
:2024000014E601C012E301E07ADC009344060091930607300091440618F00E94B306CFCFBB
:20242000002329F003E313E00E94B605C8CF02ED12E0FACFECE3F6E003950083089515D1A6
:20244000A1D1E6E1F7E0008111810B5F1F4F4AE050E00E94FC37D5D1EDE2F6E000811181F4
:20246000EED1E6E3F6E00081118113D20091E706002391F400914906002371F400E5009300
:202480003F06E0E4F6E0008111810B5F1F4F4AE050E00E94FC3711D208950091E706002322
:2024A000C9F40091E3060130A9F4E6EFF6E0008102FF10C0E9E4F6E00081039500830330A8
:2024C00018F000E00093490604E600933C0600E00093F60608958A9300914906023011F433
:2024E00084E001C080E000E000933F060BEE14E00E94B605082F0F5C0E949B050AE30E94E2
:202500009B0500E300933F0602E0809FF001EC59F94F008111810E94090700E20E949B05F8
:20252000839500E800933F060BEE14E00E94B605082F0F5C0E949B050AE30E949B0500EB7B
:2025400000933F0602E0809FF001EC59F94F008111810E940907839506E50E949B05009189
:202560004906023001E000933F0629F40AED14E00E94B60538C00BEE14E00E94B605082F43
:202580000F5C0E949B050AE30E949B0501E300933F0602E0809FF001EC59F94F0081118111
:2025A0000E94090700E20E949B05839501E800933F060BEE14E00E94B605082F0F5C0E94DE
:2025C0009B050AE30E949B0501EB00933F0602E0809FF001EC59F94F008111810E94090724
:2025E00006E50E949B05899108950E94C638E4E7F6E000811181E6E1F7E00083118300915D
:202600007206002379F10091E306013011F0043049F5E0E0F7E000811181EAE7F6E02081A5
:2026200031810217130760F4C901801B910BD9018C0143E050E00E94FC37A01BB10B0BC08F
:20264000C801821B930B8C0143E050E00E94FC37D801A20FB31F8B35904020F4E6E1F7E023
:20266000A083B183E4E00C94D3388A9300E000933F060091E306033021F40AE412E00E947B
:20268000B6050091E306023021F40FE412E00E94B6050091E3060130D1F407ED14E00E9482
:2026A000B6058091CD06EDE8F6E0008100FF06C001FF04C00E7F008300E204C0016000832C
:2026C000805D082F0E949B0503E50E949B050091E3060430A1F40091E506002319F480917A
:2026E000090602C080910A0604ED14E00E94B6050DE20E949B05805D082F0E949B0500E23D
:202700000E949B0589910895009198060130B1F501E000933F0600919506023359F40091C2
:202720009706002319F00AEC14E002C00FEC14E00E94B605009195060023B9F400919706AE
:2027400000230091430641F0002319F006EB14E00AC00BEB14E007C0002319F000EC14E0B3
:2027600002C005EC14E00E94B60500919506053628F4E5E9F6E003950083089500E0009303
:2027800095060895009198060130D1F101E000933F060091E306013029F500918F06002314
:2027A00021F40AEE15E00E94B60500918F06013021F406EE15E00E94B60500918F060230B0
:2027C00021F402EE15E00E94B60500918F06033021F40EED15E00E94B60500918F0604308D
:2027E00061F407C00091E506002319F40AEE15E002C002EB14E00E94B60500E20E949B0500
:20280000089520EA20933F060E94C30500915307003309F400E20E949B05009152070E94E4
:202820009B050EE20E949B05009151070E949B05009150070E949B0506E50C949B0521EB3A
:2028400020933F060E94C305009154070E949B05009153070E949B05009152070E949B058F
:20286000009151070E949B05009150070C949B0511E810933F0610E00E94C30500915107E1
:202880000E949B05009150070E949B0500E20C949B0521E420933F060E94C3050091520759
:2028A0000E949B05009151070E949B05009150070E949B050AE30C949B058A93802F10E098
:2028C0000E94C305843650F000E20E949B05009152070E949B050091510709C000915107A9
:2028E0000E949B050EE20E949B05009150070E949B0501E40E949B0500E20E949B058991D5
:2029000008958A930091E706002309F099C10091E906002309F47AC00091EB060A3060F41F
:20292000E6EFF6E0008103FD07C00091E3060130E1F4008102FF19C00091E306013039F4F1
:202940000091F6060C7019F000E00093490600E00093EB060093E90604E600933C0600E01E
:202960000093F6060E9486056BC1008101FF12C000E00093EB060091E906023028F0E9EE17
:20298000F6E00A95008303C006E00093E90600E000933C06E6EFF6E0008102FF18C00091C9
:2029A000E306013021F40AE00093EB0610C000E00093EB06E9EEF6E00081039500830730C6
:2029C00018F001E00093E90600E000933C060091EA061091E906011739F01093EA0604E608
:2029E00000933C060E94860500913C06053648F000E000933C06EBEEF6E00081039500838F
:202A000013C0ECE3F6E0039500831AC10091F606067009F415C104E600933C0600E0009340
:202A2000EB0601E00093E90600E000933F060091E906013009F05FC00091E306013049F5D8
:202A40008091CD0602ED15E00E94B60500914306002301E700933F0619F4ECEBF6E00CC00E
:202A6000EDE8F6E0008101FF05C008EC15E00E94B6050FC0EAE7F6E00081118144E650E03C
:202A80000E94FC370E948E0601EC00933F06082F43D80091E306023029F402E04BD80091B5
:202AA0000C0600D80091E306033031F403E042D800910B060E94520D0091E3060430D9F43F
:202AC00000E000933F0602ED15E00E94B60501EA00933F0600914306002319F4ECEBF6E083
:202AE00002C0EAE7F6E0008111814AE050E00E94FC370E949F060091E906023069F407EBE3
:202B000015E00E94B60501EA00933F06EEEFF6E0008111810E949F060091E906033009F0E7
:202B200043C0E6E9F6E0008103950083043000E000933F060EEA15E0D0F40E94B60500EC6B
:202B400000933F0600910B0710E00E94720D01E000933F0605EA15E00E94B60501EC00936F
:202B60003F0600910C0710E00E94720D19C00E94B60500EC00933F0600910B0710E00E942C
:202B8000FD0901E000933F0605EA15E00E94B60501EC00933F0600910C0710E00E94FD0934
:202BA00000919606063018F000E0009396060091E9060430C9F401E013E00E94B60501E018
:202BC00000933F060E945E0D01E700933F0600910D0610E00E94720D01EC00933F06009145
:202BE0000D0610E00E94FD090091E906053089F40FEB12E00E94B60501E000933F0602E014
:202C00000E945E0D01E900933F0600910F060E947D0D0091E906063099F404E915E00E944C
:202C2000B60501E000933F0604E00E945E0D01E800933F06E6E1F6E0008111810E94850D8A
:202C40008991089500913E06053008F49BC00E9454240E942E37D7D70E944C2D023029F027
:202C6000013021F402E00093980682C00091E906002319F40FEF0093EA060091430601307D
:202C8000A9F50091E306033049F40091F8050093440628DB009144060093F8050091E30659
:202CA000023049F40091F305009344061BDB009144060093F3050091E306013051F4009162
:202CC000CB06009344060EDB009144060093CB065BD00091E306043049F4009107060093D7
:202CE000440600DB0091440600930706009143060023A9F50091E306033049F40091F90520
:202D000000934406EFDA009144060093F9050091E306023049F40091F40500934406E2DA95
:202D2000009144060093F4050091E306013051F40091CB0600934406D5DA009144060093E0
:202D4000CB0622D00091E306043049F40091080600934406C7DA0091440600930806D1DD7E
:202D6000E6EFF6E0008100FF08C002E00093980600E00093F60601E0089500E000933E06A9
:202D80000093F60600E0089500918F06002321F40091CB060093FD0500918F06013021F466
:202DA0000091CB060093FF0500918F06023021F40091CB060093010600918F06033021F443
:202DC0000091CB060093030600918F06043021F40091CB060093050608950E94C738A02F79
:202DE00080E091E000919806013009F489C00091E306013021F000914306013011F001E0B3
:202E000001C000E00093F20500E000933E0608EC0093340600E00093F60600934906EDE8E9
:202E2000F6E00081006100830FC037DB00E00093F60600933E0600913406053608F446C028
:202E400000914906002381F59DDCE6E1F7E0008111810B5F1F4F4AE050E00E94FC37D1DC1B
:202E6000EDE2F6E000811181EADCE6E3F6E0008111810FDD00913806FBDC00E500933F06D3
:202E800000E01BDD00E000933F06963058F4E4E6F0E002E0A09FE00DF11D059114910E94FD
:202EA000B60503C0E2DB01C016DB092F93950B3008F090E08A3018F483950E94DA360E94F0
:202EC000950000E00093F6060093340600913E06053008F4B0CF97D6E0E0F7E02081318145
:202EE0002933324718F001E00093F205E6EFF6E0008100FF9ACF01E00093F2050E9486055E
:202F0000E3E00C94D4388A9380E00E9495000E94860580933F0603E815E00E94B605E7E7FE
:202F2000F6E08083818301E00093F20580933E0608EC0093340609C000E00093F606009366
:202F40003E0600913406053650F00E9495008A3018F483950E94EE3600E0009334060091CE
:202F60003E06053070F3EEE8F6E0008101FDE4CF0E948605899108959A938A93802F90E04A
:202F800090934906EDE8F6E00081006100830E94860590933F068A3021F404E715E00E94C9
:202FA000B605823021F403E615E00E94B605833021F405E515E00E94B605873021F405E49B
:202FC00015E00E94B605813021F40AE315E00E94B605863021F400E315E00E94B6058530E5
:202FE00021F402E215E00E94B605883059F401E115E00E94B60501E000933F060EE114E0B1
:203000000E94B605893059F401E115E00E94B60501E000933F0601E114E00E94B6058B3072
:20302000C8F001E014E00E94B60501E000933F068B3021F400EF13E00E94B6058C3021F40D
:203040000FED13E00E94B6058D3021F40EEC13E00E94B6050E94950001E00093F20500E086
:2030600000933E0608EC009334060AC016DA00E00093F60600933E0600913406053670F151
:203080008B3010F100914906002311F024DA1CC000E000933F060DEB13E00E94B60501E0B5
:2030A00000933F068B3021F400EF13E00E94B6058C3021F40FED13E00E94B6058D3021F43A
:2030C0000EEC13E00E94B6050E9495009A3018F493950E94EE3600E00093340600913E0629
:2030E000053050F290D5E6EFF6E0008100FFBECF0E94860500E00093F606899199910895BF
:203100000E94C638A0E0B0E080E004E1E7E7F6E00083A1830E94F4020E94F4000E94860514
:20312000EEE8F6E0008100620083EDE8F6E000810F7E0083A0933F060FEA13E00E94B60580
:2031400001E000933F0607EA13E00E94B605EEE8F6E0008102FD02C00E94023704E600932F
:20316000EE0600E00093E706D1D007C00E94F4020E94F40000E000933E06E0E1F7E0208175
:2031800031812933324720F4A13B04E0B00720F002E0F2DE01E0B7C000913E060630E0F325
:2031A0000E9454241196EEE8F6E0008101FDABDEE2E1F7E020813181253600E0304010F002
:2031C000839503C0882309F08A95873978F20093710610E0E7E7F6E0008311830E94F402DA
:2031E0000091E3060130F9F400918F060330D9F40091CC0610E0E9E8F0E03091140622E040
:20320000329FE00DF11D459154910E94E637E0E1F7E0208131810217130710F400E001C0A5
:2032200001E00093430600914306002399F00E9440030E94F40000E010E0E1EDF6E00083D9
:203240000183E2E0F7E00083018320E030E0E0E2F7E012C00E9440030E94DA0000E010E09E
:20326000E3EDF6E000830183E6E0F7E00083018320E030E0E4E2F7E00083118322833383DE
:203280008EE600E000933E060E94542404C008EE13E00E947E3600913E060730C0F38A9508
:2032A00081F70E94DC3501E000934506E0E1F7E000811181E0E0F7E000831183E4E7F6E02A
:2032C0000083118320E030E043E150E060E070E00E941138E8E1F7E00083118322833383E6
:2032E000E0E0F7E00081118120E030E043E650E060E070E00E941138ECE4F7E00083118382
:203300002283338300E0E4E00C94D3380091EE06023048F00091E706002311F405D04FD07A
:2033200000E00093EE06089501E010E0EFEEF6E0008311830091ED060535A1F40091E30621
:20334000053069F0063059F00FE01FE0DED20091E30610E0DAD20091E10610E0D6D200E0BC
:203360000093ED06089501E010E0EFEEF6E000831183E5D20F301F4009F5E1D20093E3060D
:20338000302F20E016E000E02CD10093E306D7D20093E106302F20E011E000E022D10093A6
:2033A000E1060091E3060093E406002319F400E00093E1060091E1060093E20608959A93E8
:2033C0008A930AE010E0EFEEF6E0008311830091EC06053509F088C00091E306053009F482
:2033E00080C0063009F47DC00FE01FE08ED20091FD0510E08AD20091FE0510E086D2009183
:20340000FF0510E082D20091000610E07ED20091010610E07AD20091020610E076D2009157
:20342000030610E072D20091040610E06ED20091050610E06AD20091060610E066D2009166
:20344000F80510E062D20091F90510E05ED2EAEFF5E00081118159D20091D70610E055D22B
:203460000091FC0510E051D20091D80610E04DD20091F30510E049D20091F40510E045D204
:20348000E5EFF5E00081118140D20091D50610E03CD20091F70510E038D20091D60610E010
:2034A00034D20091070610E030D20091090610E02CD20091080610E028D200910A0610E0CE
:2034C00024D280E090E0FC01E55FF94F008110E01CD283958B30B0F3E6E1F6E00081118118
:2034E00014D200E00093EC068991999108959A938A930AE010E0EFEEF6E0008311831FD2C1
:203500000F301F4009F061C01AD20093FD0517D20093FE0514D20093FF0511D200930006FA
:203520000ED2009301060BD20093020608D20093030605D20093040602D200930506FFD16D
:2035400000930606FCD10093F805F9D10093F905F6D1EAEFF5E000831183F1D10093D70656
:20356000EED10093FC05EBD10093D806E8D10093F305E5D10093F405E2D1E5EFF5E0008366
:203580001183DDD10093D506DAD10093F705D7D10093D606D4D100930706D1D100930906A1
:2035A000CED100930806CBD100930A0680E0C7D190E0FC01E55FF94F008383958B30B8F39A
:2035C000BED1E6E1F6E0008311838991999108956017710718F02617370708F4BA018B0112
:2035E0000895301710F0131708F4322F032F10E008959A938A930091190610E048E250E05D
:203600000E94E63708531F4FEFEEF6E0008311830FE01FE07AD100911A0610E076D1EFE167
:20362000F6E00081118171D1EDE1F6E0008111816CD180E090E0FC01EB5AF84F008110E0A1
:2036400064D183958B30B0F3E0E6F7E0008111815CD18991999108959A938A930091190607
:2036600010E048E250E00E94E63708531F4FEFEEF6E00083118363D10F301F40C9F45FD1EF
:2036800000931A065CD1EFE1F6E00083118357D1EDE1F6E00083118380E051D190E0FC01BB
:2036A000EB5AF84F008383958B30B8F348D11CC001E000931A060AE010E0EFE1F6E00083F1
:2036C000118304EF11E0EDE1F6E00083118380E001E090E0FC01EB5AF84F008383958B3027
:2036E000B8F390935F0710E0E0E6F7E00083118389919991089500911A06013061F5009148
:2037000055070093FD05009156070093FE05009157070093FF050091580700930006009194
:2037200059070093010600915A070093020600915B070093030600915C0700930406009151
:203740005D070093050600915E070093060600915F070093140600911A060330E1F40091E4
:2037600055070093F805009156070093F905E0E6F7E000811181EAEFF5E0008311830091D8
:2037800058070093D706009159070093FC0500915A070093D80600911A060230E1F4009129
:2037A00055070093F305009156070093F405E0E6F7E000811181E5EFF5E0008311830091A7
:2037C00058070093D506009159070093F70500915A070093D60600911A06043081F4009150
:2037E000550700930706009156070093090600915707009308060091580700930A0608957D
:2038000000911A06013061F50091FD05009355070091FE05009356070091FF0500935707E4
:20382000009100060093580700910106009359070091020600935A070091030600935B0758
:203840000091040600935C070091050600935D070091060600935E070091140600935F070B
:2038600000911A060330E1F40091F805009355070091F90500935607EAEFF5E000811181D2
:20388000E0E6F7E0008311830091D706009358070091FC05009359070091D80600935A072C
:2038A00000911A060230E1F40091F305009355070091F40500935607E5EFF5E000811181A2
:2038C000E0E6F7E0008311830091D506009358070091F705009359070091D60600935A07F5
:2038E00000911A06043081F4009107060093550700910906009356070091080600935707C1
:2039000000910A06009358070895202F012FEFEEF6E060817181AB010E94D4378B010F5F1F
:203920001F4F00831183022F2081312FA9010E94D437022F0F5F1F4F008311830895EFEEDB
:20394000F6E020813181A9010E94C837202F0081132F0F5F1F4F00831183B801A8010E94EA
:20396000C83710E0AB014F5F5F4F40835183322F20E0200F311F890108953091FD0521E0EE
:2039800014E601E02EDE0093FD053091FE0521E016E000E026DE0093FE053091FF0521E0B0
:2039A00014E601E01EDE0093FF053091000622E016E002E016DE009300063091010621E0A2
:2039C00014E601E00EDE009301063091020621E016E000E006DE009302063091030621E09C
:2039E00012E301E0FEDD009303063091040621E016E001E0F6DD009304063091050621E09A
:203A000012E301E0EEDD009305063091060621E016E001E0E6DD009306063091F80521E0A1
:203A200014E601E0DEDD0093F8053091F90521E012E301E0D6DD0093F905EAEFF5E06081F7
:203A4000718141E050E02AEF30E000E010E0C0DDEAEFF5E0008311833091D70620E011E039
:203A600000E0BFDD0093D7063091FC0521E015E001E0B7DD0093FC053091D80620E011E009
:203A800000E0AFDD0093D8063091F30521E014E601E0A7DD0093F3053091F40521E012E3F5
:203AA00001E09FDD0093F405E5EFF5E06081718141E050E02AEF30E000E010E089DDE5EF1D
:203AC000F5E0008311833091D50620E011E000E088DD0093D5063091F70521E015E001E026
:203AE00080DD0093F7053091D60620E011E000E078DD0093D6063091070621E014E601E0FE
:203B000070DD009307063091090621E01AE001E068DD009309063091080621E012E301E07F
:203B200060DD0093080630910A0621E01AE001E058DD00930A0630910B0624E014E104E073
:203B400050DD00930B0630910C0624E014E104E048DD00930C0630910D0620E510E504E167
:203B600040DD00930D0630910E0621E01CE300E038DD00930E0630910F062CE018E401E052
:203B800030DD00930F063091100624E61EE604E628DD009310063091110624E114E100E041
:203BA00020DD009311063091120625E014E104E018DD00931206309113062FE11FE100E03D
:203BC00010DD009313063091140620E012E000E008DD00931406309115062AE01AEF05E039
:203BE00000DD00931506E6E1F6E06081718144EF51E028E833E101E010E0EADCE6E1F6E00E
:203C00000083118308958A93E8EFF6E002810F7002830091F9060093F8060091FA0600935A
:203C2000F9060091F8068091F906802380FBE5EFF6E000816EF400FD0DC00081016000830C
:203C4000E6EFF6E00081016000830E94993602C00E7F008381FBC6F407E000939206009336
:203C6000930600E00093EB06E5EFF6E0008101FD10C0008102600083E6EFF6E0008102605A
:203C800000830E94993605C0E5EFF6E000810D7F008382FBC6F407E00093920600939306BC
:203CA00000E00093EB06E5EFF6E0008102FD10C0008104600083E6EFF6E00081046000832B
:203CC0000E94993605C0E5EFF6E000810B7F008383FBC6F40091F7060A3F20F4E7EFF6E0A7
:203CE00003950083E5EFF6E0008103FD13C0008108600083E6EFF6E00081086000830E9486
:203D0000993608C0E5EFF6E00081077F008300E00093F7060091FA06063039F400E0009301
:203D2000F8060093F9060093F6060091F6060F7019F000E00093EE0689910895E6EFF6E086
:203D4000008100FF12C00091E106002321F000E00093E1060AC0E3EEF6E0008103950083FE
:203D6000073018F000E00093E306E6EFF6E0008103FF07C00091E106002319F401E0009397
:203D8000E106089504B135B1E7E4F6E0008331830895EBEFF6E0008103950083023118F008
:203DA00000E00093FB060FED06B908958A93FA93EA933A922A921A920A927A936A935A9349
:203DC0004A933A932A931A930A938FB70091FB06E0E0F1E00C946B38EEEEF5E000811181C2
:203DE000E9EDF6E000831183E8E1F7E00081118122813381EDEDF6E00083118322833383D4
:203E0000CED3EBEDF6E000811181E0E0F7E000831183EDEDF6E00081118122813381E8E1AF
:203E2000F7E00083118322833383E9EDF6E000811181E0E1F7E000831183E0E0F7E00081B3
:203E40001181E9EDF6E000831183E4E7F6E000811181EBEDF6E000831183ECE4F7E000816C
:203E6000118122813381EDEDF6E00083118322833383A8D4EBEDF6E000811181E4E7F6E059
:203E800000831183EDEDF6E00081118122813381ECE4F7E0008311832283338301E007B937
:203EA0004CC300E315E7E9EDF6E000831183ECE1F7E00081118122813381EDEDF6E0008310
:203EC0001183228333836BD3EBEDF6E000811181E8E0F7E000831183EDEDF6E0008111817B
:203EE00022813381ECE1F7E00083118322833383E0E0F7E0008111810C501E4FE8E0F7E043
:203F0000208131810217130748F400918606043640F4E6E8F6E00395008303C000E000935F
:203F20008606009186060932EEE8F6E0008110F0026001C00D7F008302E0B1CFE0EFF5E038
:203F400000811181E9EDF6E000831183E0E2F7E00081118122813381EDEDF6E000831183C1
:203F6000228333831CD3EBEDF6E000811181E2E0F7E000831183EDEDF6E000811181228120
:203F80003381E0E2F7E00083118322833383E9EDF6E000811181E2E1F7E000831183E4E02E
:203FA000F7E00083118303E007B9E2E0F7E020813181293F3A4258F000914306002339F032
:203FC0000E949500EDE8F6E0008100620083009171060E3008F0B1C200E0E0E2F7E00083EC
:203FE000018302830383E1EDF6E000830183E2E0F7E000830183E2E1F7E0008301839DC2E7
:204000000CED1CE1E9EDF6E000831183E4E2F7E00081118122813381EDEDF6E00083118319
:2040200022833383BCD2E9EDF6E000811181E4E1F7E000831183EBEDF6E000811181E6E09E
:20404000F7E000831183EDEDF6E00081118122813381E4E2F7E0008311832283338304E065
:2040600007B9C798C698C598E6E0F7E0208131812137374108F461C200914306002309F091
:204080005CC20E949500EDE8F6E000810062008354C2E1E2F6E000811181E9EDF6E00083C9
:2040A0001183E4E3F7E00081118122813381EDEDF6E0008311832283338371D2EBEDF6E051
:2040C00000811181E4E6F6E000831183EDEDF6E00081118122813381E4E3F7E00083118347
:2040E0002283338304E007B9C79AC698C59825C2E1E2F6E002811381E9EDF6E0008311834B
:20410000E8E3F7E00081118122813381EDEDF6E0008311832283338342D2EBEDF6E000812E
:204120001181E4E6F6E002831383EDEDF6E00081118122813381E8E3F7E0008311832283BA
:20414000338304E007B9C798C69AD0CFE1E2F6E004811581E9EDF6E000831183ECE3F7E08A
:204160000081118122813381EDEDF6E0008311832283338314D2EBEDF6E000811181E4E642
:20418000F6E004831583EDEDF6E00081118122813381ECE3F7E0008311832283338304E014
:2041A00007B9C79AD1CFE1E2F6E006811781E9EDF6E000831183E0E4F7E000811181228172
:2041C0003381EDEDF6E00083118322833383E7D1EBEDF6E000811181E4E6F6E006831783CD
:2041E000EDEDF6E00081118122813381E0E4F7E0008311832283338304E007B9C798C69837
:20420000C59A9BC1E1E2F6E000851185E9EDF6E000831183E4E4F7E0008111812281338163
:20422000EDEDF6E00083118322833383B8D1EBEDF6E000811181E4E6F6E000871187EDED79
:20424000F6E00081118122813381E4E4F7E00083118322833383CD9905C0E8EFF6E00281B2
:20426000026004C0E8EFF6E002810D7F028300E007B9C79AC4CFEEEEF5E000811181E9EDA9
:20428000F6E000831183E8E1F7E00081118122813381EDEDF6E000831183228333837FD1B5
:2042A000EBEDF6E000811181E0E0F7E000831183EDEDF6E00081118122813381E8E1F7E0D5
:2042C0000083118322833383E9EDF6E000811181E0E1F7E000831183E0E0F7E00081118154
:2042E000E9EDF6E000831183E4E7F6E000811181EBEDF6E000831183ECE4F7E000811181C8
:2043000022813381EDEDF6E0008311832283338359D2EBEDF6E000811181E4E7F6E0008314
:204320001183EDEDF6E00081118122813381ECE4F7E0008311832283338304E0B0CDE1E292
:20434000F6E002851385E9EDF6E000831183E8E4F7E00081118122813381EDEDF6E0008365
:204360001183228333831BD1EBEDF6E000811181E4E6F6E002871387EDEDF6E0008111811B
:2043800022813381E8E4F7E00083118322833383CD9905C0E8EFF6E00281046004C0E8EF57
:2043A000F6E002810B7F028304E007B9C798C69A27CFCD9905C0E8EFF6E00281016004C0BC
:2043C000E8EFF6E002810E7F028304E007B9C79AEECFCD9905C0E8EFF6E00281086004C052
:2043E000E8EFF6E00281077F028305E007B9C7987CCEEEEEF5E000811181E9EDF6E0008341
:204400001183ECE2F7E00081118122813381EDEDF6E00083118322833383C1D0EBEDF6E098
:2044200000811181EEE0F7E000831183EDEDF6E00081118122813381ECE2F7E000831183D7
:204440002283338305E04FCE0FEF10E0E9EDF6E000831183E2E3F7E00081118120E0EDEDC5
:20446000F6E0008311832283238399D0EBEDF6E0008100930D07EDEDF6E000811181E2E33D
:20448000F7E00083118305E05DCE00E817E0E9EDF6E000831183E8E2F7E000811181228125
:2044A0003381EDEDF6E0008311832283338377D0EBEDF6E000811181ECEFF6E00083118356
:2044C000EDEDF6E00081118122813381E8E2F7E0008311832283338305E062CE0FEF10E0AC
:2044E000E9EDF6E000831183E0E3F7E00081118120E0EDEDF6E000831183228323834FD01B
:20450000EBEDF6E0008100930A07EDEDF6E000811181E0E3F7E0008311830EE167CF32DC21
:20452000E7E4F6E000811181E0E9F6E00083118300E0B5CC00E00093FB0600E000934B0678
:204540008FBF099119912991399149915991699179910990199029903990E991F99189919B
:20456000189540E050E00217130748F4A901401B510B0F3F63E0160710F40F5F1F4F2017A9
:20458000310740F4A801421B530B602F612B11F0015010404333504008F0890108950E94C7
:2045A000C638A4E1B0E0EEDB0091FB06023081F4E7E4F6E0808191818330904028F0082F60
:2045C00011810350104002C000E010E000831183EDE8F6E0008103FF2AC0E7E4F6E0408183
:2045E0005181E9EDF6E0608171812224579F9001469F8001569F100D211D321D749F100D68
:20460000211D321D4AE00E942D38C801EDEDF6E00081118122813381080F191F221D3B1F11
:20462000008311832283338344E150E0AEC00091FB06043010F10D3018F5093009F1008180
:2046400004FF11C0EDEDF6E0008111812281338143E150E060E070E00E943538EBEDF6E0CB
:2046600000831183ACC0E7E4F6E020813181263900E0304010F510E01EC0002319F01DC038
:204680000930D9F4EEE8F6E00081E7E4F6E005FF05C000811181EFECF6E00DC02081318199
:2046A000EFECF6E0008111815CDFEFECF6E000831183E7E4F6E000831183E7E4F6E0408119
:2046C0005181E9EDF6E0608171812224579F9001469F8001569F100D211D321D749F100D87
:2046E000211D321D4FEF53E060E070E00E943538C8010091FB06002311F0093069F589334B
:2047000002E7900738F0EEE8F6E00081006400830E949500009143060130A1F4E8E0F7E067
:2047200020813181253F01E0300718F004EF11E001C08901208131812817390768F4801BAA
:20474000910B0AC0E6E0F7E00081118147E250E00E94FC37800F911F0091FB060E3011F005
:20476000003109F4A4E620E0EDEDF6E04081518162817381480F591F621F721F40835183EF
:20478000628373838A019B01AD0160E070E00E943538EBEDF6E000831183EDEDF6E0408194
:2047A000518162817381401B510B604070404083518362837383E9EDF6E080839183E4E050
:2047C0000C94D338BA93AA93E9EDF6E000811181EBEDF6E02081318102171307C8F489016B
:2047E000E9EDF6E020813181021B130B20E030E0EDEDF6E04081518162817381041715071E
:2048000026072707B8F4401B510B604070400EC0021B130B20E030E0EDEDF6E0408151812E
:2048200062817381400F511F621F721F4083518362837383093E1340E0F0A9EDB6E0ED914A
:20484000FC91759710F004E101C000E0E9EDF6E040815181401B50408A0144E650E060E0EA
:2048600070E00E941138EDEDF6E00083118322833383008111812281338144E650E060E0D7
:2048800070E00E943538EBEDF6E000831183A991B99108955D9BFECF0CB908950B5F1F4FD4
:2048A0004AE050E00C94FC370E94BE382C97E3E6F7E0008103950083003208F459C100E00C
:2048C00000936307E4E6F7E0008103950083063018F000E000936407E6E3F6E02081318190
:2048E000283E334018F000E00083018300916407002351F500911306088300910B06098328
:2049000000910C060A8300910D060B8300910E060C83009111060D83009110060E83009100
:20492000980601300091430609F4005F0F830091F80508870091F90509870091D7060A87A5
:204940000091FC050B87DFC0013021F50091F30508830091F40509830091D5060A83009199
:20496000F7050B830091CB060C830091CC060D83009105060E83009106060F8300910706CF
:2049800008870091090609870091E3060A8700914506D8CF023019F5E5EFF5E0A080B18090
:2049A000EAEFF5E080809180A0910F06B0E0E6E1F6E0008111814AE050E00E94E637280170
:2049C000E0E4F6E060807180E6E1F7E0008111810B5F1F4F4AE050E00E94FC37C80100915A
:2049E00064070330D1F4A0900B07BB2480900C079924ECEFF6E0A081B181EDE2F6E04080EA
:204A00005180E4E6F6E00081118148DF3801E4E6F6E00281138142DFC801009164070430E1
:204A2000E1F4E4E6F6E00481158138DF5801E4E6F6E00681178132DF4801E4E6F6E0008538
:204A400011852CDFD801E4E6F6E00285138526DF28016624772480E090E0009164070530C9
:204A600081F4AA24BB2488249924A0E0B0E044245524E6E3F6E0608071808091120690E0B1
:204A8000985F850144E650E00E94FC370883102F04E6109FA018A982840144E650E00E94A3
:204AA000FC370A83102F04E6109F80188B828D0144E650E00E94FC370C83102F04E6109F95
:204AC000A019AD83820144E650E00E94FC370E83102F04E6109F40184F82830144E650E0CB
:204AE0000E94FC370887102F04E6109F601869868C0144E650E00E94FC370A87102F04E69D
:204B0000109F80198B8780E0FE0190E0E80FF91F00810068008383958C30B0F3009164077E
:204B2000002321F40BE7B6DE9093460680E0FE01E80FF91F0081AEDEFE01E80FF91F00813E
:204B4000E6E4F6E01081100F108383958C3078F300916407053061F4812F8F70805D012FF1
:204B600002950F70005D96DE082F94DE0DE792DE2C96ECE00C94CB3801E0009343060E94B1
:204B80008018002321F002E0009398060895E8D0FCD60AE00093BE0601E00093BF0603C0D2
:204BA00000E0009334060E942216002331F00E94860500E00093F606089500914406009383
:204BC000C20600913406053170F30091E306033029F40091D806002351F004C00091D606DB
:204BE000002329F0EDE8F6E000810064008303D00023B1F20895009135060A35EDE8F6E07A
:204C0000008118F102FF0EC00091C706043620F4E7ECF6E003950083EDE8F6E000810B7F15
:204C2000008364D00E94E000009135060F3508F45BC0ABD60091C706063008F491D000E0C2
:204C40000093BE06009335064FC00460008306FF03C00091BF0602C00091C20610918906D0
:204C6000101708F4012F00937906E2E0F7E000811181ECE7F6E0008311830091C7060023E2
:204C800039F5EAE8F6E0008100FF30D000913506053110F00E3120F00333A8F00C33B0F4BC
:204CA00000E000937906E7E7F6E0008301830BBD0ABD0093BE0600913506093111F0073330
:204CC00089F44ED00FC0043008F44AD027D008C0063008F423D060D4002311F001E0089566
:204CE0000E9462020E94F40000E008950E9440030091890610917906011778F400E000937F
:204D00007606E8EBF6E0008301830093C406E6EBF6E0008301830093C5060895E0E0F7E0CA
:204D200000811181E4EBF6E02081318102171307B0F4009135061091C006011781F0009342
:204D4000C0060091BE06073050F00091BF061091C206011720F4EFEBF6E00395008308956E
:204D6000E0E0F7E0008111814FE050E00E94FC37083C20E0120710F408EC10E0E0E02081AF
:204D80003181200F311FE4EBF6E02083318308950E94C238552477246624A0E0B0E080E09F
:204DA00090E0509243060E948018002331F002E000939806E8E00C94CF380091E3060330AB
:204DC00079F4EAEFF5E00081118144E650E00E94E637ECEBF6E0008311830091F9050EC06B
:204DE000E5EFF5E00081118144E650E00E94E637ECEBF6E0008311830091F4050093C60631
:204E0000402E00811181012B09F041C0E0E1F7E00081118144E650E00E94FC374AE550E0B2
:204E20000E94E637D80100E012E0019FF001E45BF94FA083B18303950C30B0F3E0E1F7E08A
:204E4000208131812D3201E0300720F189010C5211404CED55E00E94FC37C801012B11F401
:204E600081E090E08C0144E853E00E94E637ECEBF6E0008311838C0142E350E00E94E63751
:204E8000C801EEE8F6E000810860008353940E9440033EC081E0E6CF08EC701680F16016F0
:204EA00008F46394E0E0F7E020813181ECEBF6E000811181005E1C4F2017310718F002E033
:204EC0005016E1F403E0502E0091C6060330B0F00BE0601630F0E1ECF6E000810395008346
:204EE00066240091C60610E040E550E00E94E63744E650E00E94FC370093C606772400910D
:204F0000C606401610F44092C60600E00093C3060E942216002331F00E94860500E00093D3
:204F2000F60648CF73D4002309F044CF0091C306063070F37394552011F301E0501609F035
:204F4000ABCF00913506093240F1E4E7F6E0008111810A171B0708F50FE10093350601E00C
:204F600012E0019FF001E45BF94F40815181202F30E021503040220F331FF901E45BF94F50
:204F80004083518303950C3058F3E4E7F6E000811181ECE4F6E0068B178BE0E0F7E00081B6
:204FA00011819C01200F311FECE4F6E0408151812417350708F0A3CF00342FE1120710F4C8
:204FC00000571E4F44E650E00E94FC3745E550E00E94E637ECEBF6E00083118302E0502EA1
:204FE000ECE7F6E0008111814AE050E00E94FC3703950093C60683CF00918F06033069F4C7
:2050000001E0009343060E948018002331F400914306013009F402C00DD108950E94C23870
:20502000A2E080E004E10093B00600918F06033059F001E0009343060E948018002321F093
:2050400002E000939806F3C00091CC06002349F070D2002319F00E94BC17F2CF3BD10023F8
:2050600079F700911406E3E8F0E012E0019FE00DF11D45905490E9E8F0E0019FE00DF11DF8
:20508000659074900091CC06002359F4EDE8F6E000810260008301E00093CD0608E312E708
:2050A00011C0A0911506EDE8F6E000810D7F00830091CC060093CD0682014091CC0650E079
:2050C0000E94E637EAE7F6E00083118300918F06033041F483014091CC0650E00E94E637AF
:2050E00000831183E1E8F6E04082518203C000E0009334060E942216002331F00E948605AA
:2051000000E00093F60693C000913406053190F3E6E3F6E0008111810A171040009135065A
:20512000D0F4053618F004E60093350691E00091CC06002379F40091CB064AE00E94D8370F
:20514000802F002311F481E003C0843008F083E03CD147C044C00B3678F5093659F4E8E02B
:20516000F7E020813181253F01E0314018F00E94BC175DC090E00E94E00027D10091CC0668
:20518000002341F4E9ECF6E000811181EAE7F6E00083118300918F06033041F4EAE7F6E006
:2051A00000811181E9ECF6E00083118300E00093720600933D0619C0EAE7F6E000811181C6
:2051C000E9ECF6E0208131810217130711F00AE0CECFEDE8F6E000810D7F008391E0809159
:2051E000CB060E9497030E94F40080937906EAE8F6E0008100FD02C00E944003009189068D
:2052000010917906011710F400937906E2E0F7E000811181ECE7F6E0008311830E94090128
:20522000992309F464CF73D2002309F460CFE8E00C94CF380E94C63800E000934306009192
:205240001406EDE7F0E012E0019FE00DF11D85919491E9E8F0E0019FE00DF11DA591B49111
:2052600000918F06033041F00E948018002321F002E0009398062BC00091CC065AD1002387
:2052800019F00E94BC17F4CF00918F06033011F48D0101C08C014091CC0650E00E94E63701
:2052A000ECEBF6E0008311830091CC060093CD060E9440030E942216002331F00E94860531
:2052C00000E00093F60603C0A1D2002399F3E4E00C94D3388A9380E006E400933E068093BA
:2052E0003D060E94993600E000934A066ED000913E060B30C0F30E94031E83952091CC06D8
:2053000030E0E9ECF6E00081118123D001E000933F06843618F409E813E002C008E913E0C3
:205320000E94B605883C08F080E0E6EFF6E0008103FF04C00E94DC3500E009C000FD04C0E5
:2053400000913D06053178F20E94DC3501E0899108950E94C4382801A22FE3E8F0E01091BA
:20536000140602E0109FE00DF11D8591949100E000933F0606E813E00E94B60500E20093E1
:205380003F068201AC010E94FC370E942C0600E400933F0600E813E00E94B60500E900937F
:2053A0003F060DE713E00E94B60500EB00933F060A2F0E942C0600ED00933F0609E713E0EC
:2053C0000E94B605E6E00C94D138792F682F41E050E0E3E8F0E01091140602E0109FE00D9D
:2053E000F11D85919491E0E0F7E020813181253F340778F08901045F1140AC010E94FC37B3
:20540000A8014F5F5F4F473000E0500710F046E050E00091CC06002311F44093CD068C01C5
:205420000E94E637E9ECF6E000831183862F972F089501E0009343060E948018002309F0C0
:205440004BC0009109060B3018F001E00093090670D0002311F00C94BC170091090610E074
:2054600042E959E00E94E637EAE7F6E00083118305C00E94F40000E0009334060E94221669
:20548000002331F00E94860500E00093F606089500913406053190F300910706009379065B
:2054A000EAE8F6E0008100FD02C00E9440030091890610917906011710F400937906E2E0EF
:2054C000F7E000811181ECE7F6E0008311830E9409011DD1002369F2089500E000934306B1
:2054E0000E948018002321F500910A060B3018F00AE000930A061DD0002311F00C94BC1744
:2055000000910A0610E04CED55E00E94E637ECEBF6E0008311830E942216002331F00E9449
:20552000860500E00093F606089570D1002399F308950E94C438A02F0091E306013069F4D2
:2055400004EC19E08CEC90E120911406223049F40CED15E084E79EE004C008E715E086EF2B
:2055600099E0E0E1F7E0408051804A2F50E00E94E6374016510610F408E00BC08C014A2FB7
:2055800050E00E94E6370415150510F409E001C000E0E6E00C94D138E5E6F7E00081039531
:2055A0000083023000E008F408950093650700913506073108F46FC0E4E7F6E000811181DB
:2055C000E8EBF6E0208131810217130738F400913506083518F008E5009335068901025EBA
:2055E0001F4FE4E7F6E0208131810217130790F4E8ECF6E0008103950083093C70F000E0C7
:205600000093C80689010F501040E8EBF6E00083118303C000E00093C806E8EBF6E0008102
:205620001181E4E7F6E0208131810217130770F4E4ECF6E0008103950083033350F0E8EBC2
:20564000F6E000810F5F1F4F0083118300E00093C4068901EAEBF6E020813181200F311FBC
:20566000E8EBF6E0008111812017310740F4E6E7F6E0008103950083053640F403C000E07A
:20568000009376060091C5060330E8F100E00E94ED1601E008950431B0F1E6EBF6E0008192
:2056A0001181E8EBF6E0208131810217130728F4132FE6EBF6E020833183009135060431CC
:2056C000A9F405E100933506E6EBF6E02081312FE4E7F6E0008111810C5E1F4F20173107D6
:2056E00028F0E5ECF6E0008103950083E4E7F6E000811181E8EBF6E020813181021713076C
:2057000010F40083118300E00093C3060895BA93AA9300913D06053108F44BC000917206F1
:20572000002339F4A6E3B6E0ED91FC913B9708F440C00091E306013049F400918F060230E1
:2057400029F41091790602E0109F03C0009079061124E0E4F6E0008111810016110660F446
:20576000A0E4B6E0ED91F12F389730F0A7E7B6E0ED91FC913397D0F40091E306013041F4E5
:2057800000918F06013021F40091B0060F3128F0E6E7F6E000810395008300917606053677
:2057A00040F000E00E94ED1601E02DC000E0009376060091E306013061F400913D06093268
:2057C00020F00CE2002E01E007C008EE002E03E003C008EB002E0BE0102EEAE7F6E00081B9
:2057E0001181000D111DE4E7F6E0208131810217130740F400918A06043098F202E00E941E
:20580000BC17D2CF00E0A991B99108950E94C63880E090E000913406053108F4B2C0EEE85E
:20582000F6E0008103FF03C00091C60602C00091440600937906EAE8F6E0008100FD02C058
:205840000E9440030091790610918906011710F010937906E6E0F7E000811181ECE7F6E090
:20586000008311830091E3060130E9F400918F060330C9F4ECEBF6E000811181EAE7F6E00C
:20588000008311830E941102E0E0F7E00081118108511C4FEAE7F6E02081318102171307A1
:2058A00020F481E002C00E94AB02E0E1F7E00081118108511C4FECEBF6E0208131810217DA
:2058C000130728F401E00E94ED1601E05BC0E0E1F7E02081318120353040A0F30091E30653
:2058E000013029F400918F06033009F495E0ECEBF6E020813181092F10E0020F131FE4E759
:20590000F6E0208131810217130708F19530A1F41091790602E0109FE0E4F6E0008111817A
:205920000016110648F4D801189730F0E7E7F6E0A081B181139728F4E6E7F6E000810395DD
:205940000083009176060B3050F081E008C000917606002321F0E6E7F6E00A95008300917C
:20596000C106033010F4882309F0ACCF0091E306013011F40E9497030E94DA0000E000932F
:20598000340600E0E4E00C94D3385B2F4A2FAAEBB6E0ED91FC91759728F404E110E0EAEB73
:2059A000F6E009C0EAEBF6E0208131812535314020F004E511E000831183A42FB52F08952A
:2059C000392F282FEBE0F6E0008502FF11C0EDE2F6E080819181E6E1F6E0008111814AE07E
:2059E00050E00E94E6378017910710F003E02AC0EBE0F6E0008501FF10C0E6E3F6E0808126
:205A0000918100910F0610E04AE050E00E94E6378017910710F002E015C000910A0710919C
:205A20000D06011728F0EBE0F6E0008500FD03C000E00093870600918706063010F004E005
:205A400001C000E0822F932F0895792F682FECEFF6E0808191810091100610E04AE050E0A1
:205A60000E94E6378017910720F09C012930374030F0E3E8F6E000810395008303C000E0BB
:205A80000093830600918306063010F001E001C000E0862F972F08950E94C738A0E0D5DF2B
:205AA000002329F003E00E94BC1701E0A9C0EEE0F7E000811181E0E0F7E02081318102174D
:205AC000130710F4C90102C0C8018901801B910BE0E9F6E0208131812C3C01E0300718F018
:205AE0002733324008F0A1E08838934128F4AA2319F400E00093850600918506093010F084
:205B000001E0D1CFECE7F6E020813181EEE7F6E000811181045D1E4F2017310750F400E0E9
:205B200000938406EDE8F6E0008105FF08C006E0BACF009184060A31A8F307E0B4CFE0E0C6
:205B4000F7E0208131812933324728F4EEE8F6E0008106FF02C002E0A6CF009133060023F2
:205B600039F00091B306063030F0009133069BCF00E00093B30600914306013061F500910A
:205B8000E306033011F0023031F5009135060A3510F50B3000F10091C7060023E1F0EEE72D
:205BA000F6E0208131812D3201E03007A0F0C90196958795893E03E0900710F088EE93E07A
:205BC000E0E4F6E0008111814AE050E00E94E6370817190700F200910C07053550F400E0CC
:205BE00000938806EDDE002351F00E94ED1602E007C0009188060630A8F305E054CF00E02F
:205C0000E3E00C94D4380E94C73890E0A0E090939906EEE8F6E000810B7F008301E0009314
:205C2000980600E020E012E0019FF001E456F94F2083218303950A30A8F320939B0605C014
:205C4000E9E9F6E0008103950083009197060023E1F001E0D0D0002319F00E9486052FC015
:205C6000EDD00023D1F700E0C6D00023B1F700919A0610E0015010402091990602171040C0
:205C8000E9F0DCD00023E1F2E8CF00E0B4D0002321F7D4D0002309F701E0ADD00023E9F60C
:205CA00000919A0610E001501040209199060217104021F0C3D0002319F2CFCFA1E080E018
:205CC0008093F6060AE000933E0608EC009334060E9495000E94860501E00093F205EDE88F
:205CE000F6E000810061008316C004E000933E0600E00093F60600913406053660F00E9471
:205D000095009A3028F49395AA2311F00E94DA3600E00093340600913E06053060F30E94B4
:205D2000031EE6EFF6E0008102FF05C0843010F4839501C080E0008101FF05C0882311F06D
:205D40008A9501C084E000919706002300E000933F0651F00FE613E00E94B60501E00093FC
:205D60003F0604E713E009C004E713E00E94B60501E000933F060FE613E00E94B60500E41A
:205D800000933F06082F03950E942C0601E400933F06082F03950E942C0600E900933F0667
:205DA00004E0809FF001E456F94F008111810E94610601E900933F0602E0809F01E0000E9F
:205DC00000E0101E000C111CF001E456F94F008111810E9461060E942037002309F485CF80
:205DE00002E00093980600E00093F6060E948605E3E00C94D438002319F00E94BC2502C014
:205E00000E94C826EDE2F6E00081118130919B0622E0329FF001E456F94F00831183EBE9A7
:205E2000F6E000810395008300919806023011F401E008950E94950000E008958A9380E0DB
:205E4000EEE8F6E000810460008300910E06002300E009F4C9C080933F0602E30093950695
:205E60000E94841380933806E6E3F6E08083818380933D060AE0009335068093490601E0A1
:205E80000093F20505C000E00093F60600933406E6E3F6E02081318100910E062017304039
:205EA00008F0A1C000913E06053080F00E94031EC7D7002341F002E00093980600E00093D4
:205EC000F60601E091C000E000933E06009134060531F0F200913506063020F080E004E69E
:205EE00000933506E6EFF6E0008101FF08C000E000933506882311F080E001C081E0008183
:205F000002FF08C000E000933506882311F080E001C081E00E9435130E94C213E6E1F7E0DD
:205F2000008111810B5F1F4F4AE050E00E94FC370E940114EDE2F6E0008111810E941F1403
:205F400000E500933F0600E00E945D1401E000933F06813059F40DEA14E00E94B605009101
:205F60000E0610E00E94491400E00CC00AE613E00E94B605E6E3F6E0008111810E94491481
:205F8000009138060E9438140E949500EEE8F6E0008101FF03C00E94831793CFE0E0F7E0E8
:205FA00020813181E6E1F7E00081118116950795020F131F0053184F208131810217130713
:205FC00020F402E00E94BC177CCF00913D060B3008F459CFE0E0F7E020813181243F31401A
:205FE00008F051CFEECF00E0899108950E94C438FAD1F9D180E002E0809FF001EF5DF94F1C
:2060000020813181203A3F4050F0809FF001EF5DF94F208131812137374108F46DC00E9482
:2060200086050E94E000EDE8F6E000810860008300E014E0EEEEF5E00083118300933D06CA
:2060400080E022E0829FF001EF5DF94F0083118383958630B0F300913E060333E0F380E072
:2060600010910D07EFE8F0E090E0E80FF91F0491101718F48395833598F38B5F80930C0712
:2060800000E010EC29E831E0E0E0F7E04081518160E070E00E943538D80100E000933F06A8
:2060A00002EA14E00E94B60500EC00933F068D014AE050E00E94FC370E94060601E0009300
:2060C0003F060EE914E00E94B60501E300933F0600910C070E942C0600913D06053098F06E
:2060E00000910C07033378F001E500933F060BE914E00E94B605F8CF8395863008F47BCF80
:20610000E6E00C94D13801E900933F0607E914E00E94B60501EC00933F0600910A070E9404
:206120002C0600E000933E0600913D06063008F492CF01E900933F0602ED12E00E94B6050F
:2061400080E000E010EA21E430E042E0849FF001EC59F94F4081518160E070E00E943538FB
:2061600022E0829FF001EF5DF94F008311838395863038F380E0082F17D102E0809FF001F6
:20618000EF5DF94F008111810E9455068395863090F3EEEEF5E0A083B18341D1902F00230E
:2061A000F1F40EE813E0EFEEF6E0008311838D010E94851C80E002E0809FF001EF5DF94F90
:2061C000008111810E94851C83958630A0F3EDE8F6E00081077F008306D121D1902F4424E3
:2061E00040C000E000933F0607E814E00E94B60501E000933F060BE714E00E94B60501EBBF
:2062000000933F06E0E0F7E0008111814AE050E00E94FC370E940606863009F49DE49D341A
:20622000E9F400EF00933F0603E614E00E94B60501EF00933F0603E614E00E94B6050E94DC
:20624000031EE6EFF6E0008103FF04C000E00093F606439402E0401609F44ED000E000931F
:206260003E0600913E060333E0F3992351F19D3441F19130B9F40E94860500E000933F06A8
:206280000DE614E00E94B60501E000933F0605E614E00E94B60501EC00933F068D010E94D0
:2062A0000606DCCF00EF00933F0609E714E00E94B60501EF00933F0609E714E00E94B60516
:2062C000AECF80E0442009F08CCF5524052D6CD010E0052D5AD002E0509EF001EC59F94FA8
:2062E000208131812436304108F08395539406E0501608F091CFEACF9A938A9390E090934F
:20630000990600913E060630E0F300E00093B2060E94700301E010E0492F0E94F637009315
:20632000B2060E94700380E08C0119D083958630D8F300919906053620F000E00093990694
:20634000939580E0082F30D08C011FD083958630C8F30E94542400E000933E06D2CF1017E0
:2063600099F412E0019FF001EC59F94F208131812633304130F4E9E9F6E0008103950083FB
:20638000089500E0009399060895011748F012E0019FF001EC59F94F008111810C94550643
:2063A0000FE514E00C94B605002319F410E010933F06013019F410E410933F06023019F439
:2063C00010E810933F06033019F410EC10933F06043019F411E010933F06053019F401E478
:2063E00000933F0608958A930EE813E0EFEEF6E0008311830E949F1CEEEEF5E00083118333
:2064000080E00E949F1C22E0829FF001EF5DF94F0083118383958630A0F38991089510E0F8
:2064200000E022E0029FF001EF5DF94F40815181E8E5F0E0029FE00DF11D25913491205994
:20644000314042175307A0F0E8E5F0E022E0029FE00DF11D2591349120573E4F42E0049F09
:20646000F001EF5DF94F408151812417350708F412E003950630A8F2123099F400E0E8E5BB
:20648000F0E022E0029FE00DF11D2591349142E0049FF001EF5DF94F2083318303950630A4
:2064A00070F3EEEEF5E0208131812C3204E7300718F02533364730F000E315E70083118302
:2064C00001E00895012F08959A938A9318D1E0EFF5E020813181203107E2300718F0213875
:2064E0003E43A8F00E9486050CE911E3E0EFF5E00083118301E00093430608E312E7EAE740
:20650000F6E00083118300E000933D0608C089919991089500E00093F60600933E06009158
:206520003406053108F46FC0E7E7F6E020813181203901E0300728F489010C5E1F4F008357
:20654000118302E300937906E2E0F7E000811181ECE7F6E0008311830E9462020E94F400A8
:2065600000E000933F0605E514E00E94B60500EB00933F06E0EFF5E0008111810E941B07EA
:2065800001E000933F0600E514E00E94B60501E400933F06E2E0F7E0008111810B5F1F4FCB
:2065A0004AE050E00E94FC370E94C305009152070E949B050EE20E949B05009151070E9459
:2065C0009B05009150070E949B0501E40E949B05E0EFF5E020813181293707E3300718F446
:2065E000203C3B4230F401EC00933F060BE414E005C001EA00933F060AEB12E00E94B6052A
:2066000000E00093340600913D060D3328F4EEE8F6E0008106FF0AC00E94950001EC0093EA
:206620003F060BE414E00E94B605F6CF00913E06063008F474CF0E9454240E94031EE0EF1A
:20664000F5E0408151812CED37E304E60E94960EE0EFF5E00083118398012C351B4228F441
:206660000CE51BE20083118307C0293707E3300718F4203C3B4210F401E001C000E01091C1
:20668000F606183009F046CF002309F043CF808191810EED13E0EFEEF6E0008311838C0122
:2066A0000E94851C2CD00E949500E0EFF5E0008111818017910741F001EC00933F060BE499
:2066C00014E00E94B605F8CF01EC00933F0606E414E00E94B605F8CFE0EFF5E020813181E4
:2066E000293707E3300718F4203C3B4230F40CE911E30083118301E0089500E008950EED1A
:2067000013E0EFEEF6E0008311830E949F1CE0EFF5E00083118308953DD10E9495000E9420
:20672000E5040E94E50405D30E94B3190E94771A0E94661100E000933F060AE314E00E9418
:20674000B60501E000933F060AE214E00E94B60500E000933D06ECE9F6E00483058306838F
:20676000078300913E06053048F10E94031E0091FA06053069F4ECE9F6E0048115810F5F32
:206780001F4F0483158398012536304008F02EDC0091FA060A3069F4ECE9F6E00681178114
:2067A0000F5F1F4F0683178398012536304008F08BDE00E00093F60600933E060E94950098
:2067C00000913D06023068F20E94B3190E94771A00E00093F706E8E0F7E00083018300930F
:2067E0008606EEE8F6E000810D7F0083FCDD17DE86DF72DF0E9486057FC00E94A407009103
:20680000CC06073018F001E00093CC060091F706033308F44DC00091E306053009F448C0A0
:20682000013091F400918F06033010F40E940E2800918F06033011F40E94FC2700918F0624
:20684000043011F40E941A290091E306033011F00230C9F40091E506002311F40E94BC2556
:206860000091E506013011F40E94C8260091E506023049F4C8D900E000939806EEE8F6E08D
:2068800000810B7F00830091E306043061F40091E506002311F40E94192A0091E506013031
:2068A00011F40E946D2A00E00093F7060093E706EEE8F6E0008101FF02C00E9483170E94DD
:2068C000950000E00093F60600933E0600913406093C90F0EDE8F6E00081077F00830E9476
:2068E00086190E94BD1CB1D8002319F003E00E94BC1700E00093340600913E06053030F397
:2069000000E000933F060E9454240E94031E0E949E1E19D00091E106002309F06ECF0E9428
:206920004007E6EFF6E0008101FFC2CF0091E306002329F0E3EEF6E00A950083B9CF06E066
